1013438       159832809    000000012526098        20151231201512310059572040500REVLIMID 5MG CAP                                                    000000900002800542906                                                  008143563                                                           00000BIZETTE        GREG       BB4932718                 1427014638COVINGTON      LA70433                    1955  270400  453558         D          1            00000009 fghfghfhfhfhffhfhdd
10134381234   159832809    000000012525237        20151231201512310000781269144TAPAZOLE 5MG TABLET 100 1                                                000005600002800071084                                                  001066243                                                           00000POLKINGHORN    GEORGE RIC BP0891704                 1033182019AUGUSTA        ME04330                    1948  104900  441049         D          1            00000056
10134384567   159832809    000000012525236        20151231201512310000781269244TAPAZOLE 5MG TABLET 100 1                                               000004600002800232372                                                  003485423                                                           00000POLKINGHORN    GEORGE RIC BP0891704                 1033182019AUGUSTA        ME04330                    1948  104900  441049         D          1            00000046
1013438       159832809    000000012525236        20151231201512310000781269244TEMOZOLOMIDE 20MG CAP                                               000001000002800050516                                                  000757703                                                           00000POLKINGHORN    GEORGE RIC BP0891704                 1033182019AUGUSTA        ME04330                    1948  104900  441049         D          1            00000010
1013438       159832809    000000012527969        20151231201512310061958180101HARVONI TAB                                                         000001400001401890000                                                  028350003                                                           01010ASH            MICHELLE   MA1283162                 1851408157BROOKHAVEN     MS39601                    1968  170800  477702         D          1            00000014
1013438       159832809    000000012527967        20151231201512310000093747489CAPECITABINE 500MG TAB                                              000005600002100219065                                                  003286083                                                           10100VIRGIL         CECELIA  T BA2662547                 1063489334DELRAY BEACH   FL33484                    0000  233400  263851         D          1            00000056
1013438       159832809    000000002432988        20151231201512310600078056912EXTAVIA 0.3MG VIALS (1X15)                                          000001500003000605783                                                  009086703                                                           07010CUTTER         DAVID      MC3252955                 1558776633PORT ANGELES   WA98362                    1947  198300  292690         D          1            00000015
1013438       159832809    000000002515818        20151231201512310157894015012ZYTIGA 250MG TABLET                                                 000010000003000799632                                                  011994003                                                           06050QASIM          MOHAMMAD ( BQ7389403                 1609875087GAINESVILLE    TX76240                    1940  176200  444520         D          1            00000100
1013438       159832809    000000002515818        20151231201512310157894015012ZYTIGA 250MG TABLET                                                 000002000003000159926                                                  002398803                                                           06050QASIM          MOHAMMAD ( BQ7389403                 1609875087GAINESVILLE    TX76240                    1940  176200  444520         D          1            00000020
1013438       159832809    000000002515821        20151231201512310159746017210PREDNISONE 5MG TAB                                                  000006000003000003003                                                  000045003                                                           06050QASIM          MOHAMMAD ( BQ7389403                 1609875087GAINESVILLE    TX76240                    1940  176200  444520         D          1            00000060
1013438       159832809    000000002511356        20151231201512310164406000602TECFIDERA 240MG CAP  30 DAY                                         000006000003000721680                                                  010825203                                                           11100MYERS          KIMBERLY K MM2977102                 1003258773DAYTON         OH45417                    1958  245300  280693         D          1            00000060
1013438       159832809    000000012527471        20151231201512310059572050400POMALYST 4MG CAP                                                    000001400002800978132                                                  014672003                                                           00000HOU            JING-ZHOU  BH8275275                 1053478131PITTSBURGH     PA15232                    1934  115600  437989         D          1            00000014
1013438       159832809    000000002515739        20151231201512310143068022001HETLIOZ 20MG CAP                                                    000003000003001481986                                                  020208902                                                           11100REILLY         MICHELE Q. BR2591483                 1902890361ASHBURN        VA20147                    1989  220100  410401         D          1            00000030
1013438       159832809    000000002505232        20151231201512310200597014560OFEV 150MG CAP                                                      000003000003000480000                                                  007200003                                                           11090HAN            PAUL       BH8620761                 1174590558ENGLEWOOD      NJ07631                    1928  207000  425188         D          1            00000030
1013438       159832809    000000002495863        20151231201512310847335027723TETRABENAZINE 12.5MG TAB                                            000002800001400220433                                                  003306523                                                           31230NANCE          MARTHA A.  BN1443946                 1457338592GOLDEN VALLEY  MN55427                    1950  155400  408423         D          1            00000028
1013438       159832809    000000002438632        20151231201512311164406000602TECFIDERA 240MG CAP  30 DAY                                         000006000003000721680                                                  010825203                                                           11000ARORA          RAVINDER   AS1951082                 1689674525SEDALIA        MO65301                    1953  165300  204413         D          1            00000060
1013438       159832809    000000002455801        20151231201512311000078060715GILENYA 0.5MG CAP                                                   000002800002800692282                                                  010384363                                                           12020TRUDELL        RANDALL    AT9377474                 1083684724KNOXVILLE      TN37920                    1960  237800  221126         D          1            00000028
1013438       159832809    000000002441770        20151231201512311164406000602TECFIDERA 240MG CAP  30 DAY                                         000006000003000721680                                                  010825203                                                           11000FROHMAN        ELLIOT     BF4448595                 1689630147DALLAS         TX75390                    1957  276600  252108         D          1            00000060
1013438       159832809    000000002475237        20151231201512310500078060715GILENYA 0.5MG CAP                                                   000003000003000741731                                                  011126103                                                           11060GORDON         NORMAN     BG1864974                 1467481648EAST PROVIDENCERI02914                    1970  202700  321675         D          1            00000030
1013438       159832809    000000002460710        20151231201512310964406000602TECFIDERA 240MG CAP  30 DAY                                         000006000003000721680                                                  010825203                                                           11020GOTTESMAN      MALCOLM    BG1383176                 1083677389MINEOLA        NY11501                    1946  211700  215717         D          1            00000060
1013438       159832809    000000002514498        20151231201512310100078060715GILENYA 0.5MG CAP                                                   000003000003000741731                                                  011126103                                                           12110BURNS          DEANNA E   MB0442513                 1487767414CHARLOTTE      NC28203                    1975  228300  305227         D          1            00000030
1013438       159832809    000000012527444        20151231201512310000093747489CAPECITABINE 500MG TAB                                              000009000002100352068                                                  005281203                                                           00000DUBLIS         STEPHANIE  FD2727583                 1346443769WYOMING        MI49519                    1963  149300  477454         D          1            00000090
1013438       159832809    000000002524433        20151231201512310059572040500REVLIMID 5MG CAP                                                    000002100002801266781                                                  019001643                                                           00000SKELTON        MATTHEW  R BS8022256                 1689614919ROANOKE        VA24014                    1944  124100  271374         D          1            00000021
1013438       159832809    000000002439696        20151231201512311164406000602TECFIDERA 240MG CAP  30 DAY                                         000006000003000721680                                                  010825203                                                           11000BROCKER        ROBERT     AB2428337                 1851377733YOUNGSTOWN     OH44510                    1970  244400  420356         D          1            00000060
1013438       159832809    000000012527622        20151231201512310000378251191CAPECITABINE 150MG TAB                                              000001800002100021103                                                  000316553                                                           00000BODNAR         LISA (DNC) MB0057504                 1609825918DELRAY BEACH   FL33484                    1930  233400  477963         D          1            00000018
1013438       159832809    000000012527622        20151231201512310000378251191CAPECITABINE 150MG TAB                                              000004200002100049241                                                  000738613                                                           00000BODNAR         LISA (DNC) MB0057504                 1609825918DELRAY BEACH   FL33484                    1930  233400  477963         D          1            00000042
1013438       159832809    000000002524026        20151231201512310059572050400POMALYST 4MG CAP                                                    000002100002801467198                                                  022008003                                                           00000NAGOVSKI       NEIL (DNC) BN9306209                 1588635668PEMBROKE PINES FL33028                    1945  133000  448318         D          1            00000021
1013438       159832809    000000002524077        20151231201512310059572050400POMALYST 4MG CAP                                                    000002100002801467198                                                  022008003                                                           00000ALBERICO       THOMAS (DN BA0372475                 1922001064NORFOLK        VA23502                    1940  127500  461520         D          1            00000021
1013438       159832809    000000002524174        20151231201512310000597014560OFEV 150MG CAP                                                      000006000003000960000                                                  014400003                                                           05050GRIGGS         ADAM       BG2507119                 1043275647DAVENPORT      FL33837                    1942  227500  475528         D          1            00000060
1013438       159832809    000000012527917        20151231201512310052015008001DIFICID 200MG TABLET                                                000000400000800079384                                                  001190763                                                           00000TRIESTER       STUART     BT7251921                 1316920010SCOTTSDALE     AZ85255                    1976  285000  477924         D          1            00000004
1013438       159832809    000000012527917        20151231201512310052015008001DIFICID 200MG TABLET                                                000001200000800238151                                                  003572283                                                           00000TRIESTER       STUART     BT7251921                 1316920010SCOTTSDALE     AZ85255                    1976  285000  477924         D          1            00000012
1013438       159832809    000000012526749        20151231201512310000069018721IBRANCE 75MG CAP                                                    000000500002800295500                                                  004221453                                                           01010HOLLISTER      DICKERMAN  AH1015571                 1063420669GREENWICH      CT06830                    1931  206800  459448         D          1            00000005
1013438       159832809    000000012526749        20151231201512310000069018721IBRANCE 75MG CAP                                                    000001600002800945600                                                  013508643                                                           01010HOLLISTER      DICKERMAN  AH1015571                 1063420669GREENWICH      CT06830                    1931  206800  459448         D          1            00000016
1013438       159832809    000000002509938        20151231201512310467386042201XENAZINE 25MG TABLET                                                000008400001401677149                                                  025157163                                                           24200KUMAR          RAJEEV     FK0509781                 1447343751ENGLEWOOD      CO80113                    1963  180200  387695         D          1            00000084
1013438       159832809    000000002503957        20151231201512310357894015012ZYTIGA 250MG TABLET                                                 000012000003000959558                                                  014392803                                                           03000WAITMAN        KATHYRN R. MW0624228                 1881755528CODY           WY82414                    1928  159200  405164         D          1            00000120
1013438       159832809    000000002440109        20151231201512311064406000602TECFIDERA 240MG CAP  30 DAY                                         000006000003000721680                                                  010825203                                                           11010RISER          EMILY      BR1355482                 1124115068BIRMINGHAM     AL35209                    1972  235000  421434         D          1            00000060
1013438       159832809    000000002497418        20151231201512310867386042201XENAZINE 25MG TABLET                                                000004200001400838575                                                  012578583                                                           11030PRITULA        HALINA     FS0889141                 1912193855MARION         OH43302                    1942  143300  415279         D          1            00000042
1013438       159832809    000000002450377        20151231201512310764406000602TECFIDERA 240MG CAP  30 DAY                                         000006000003000721680                                                  008870403                                                           11040LENIHAN        KELSEY D   ML2771435                 1295084028KNOXVILLE      TN37922                    1966  137700  282389         D          1            00000060
1013438       159832809    000000002504761        20151231201512310264406000602TECFIDERA 240MG CAP  30 DAY                                         000006000003000721680                                                  010825203                                                           05030STARR          GEOFFREY   BS4544208                 1831118017SAINT JOHNSBURYVT05819                    1971  203800  384363         D          1            00000060
1013438       159832809    000000002490643        20151231201512310364406000602TECFIDERA 240MG CAP  30 DAY                                         000006000003000721680                                                  010825203                                                           11080BRAKEL         STEPHANIE  MB2607046                 1184980823MINNEAPOLIS    MN55407                    1959  256500  421093         D          1            00000060
1013438       159832809    000000012527925        20151231201512310016729011431ETOPOSIDE 100MG/5ML VIAL  MD                                        000000500002800001137                                                  000017063                                                           06060SCOTT          MICHAELA G AS2994021                 1649272899VERO BEACH     FL32960                    1940  134900  478075         D          1            00000001
1013438       159832809    000000012527925        20151231201512310016729011431ETOPOSIDE 100MG/5ML VIAL  MD                                        000002500002800005685                                                  000085303                                                           06060SCOTT          MICHAELA G AS2994021                 1649272899VERO BEACH     FL32960                    1940  134900  478075         D          1            00000005
1013438       159832809    000000012527922        20151231201512310061703033950CARBOPLATIN 450MG/45ML VL                                           000004500002800006204                                                  000093063                                                           00000SCOTT          MICHAELA G AS2994021                 1649272899VERO BEACH     FL32960                    1940  134900  478075         D          1            00000001
1013438       159832809    000000002520722        20151231201512310064406000602TECFIDERA 240MG CAP  30 DAY                                         000006000003000721680                                                  010825203                                                           10100BAMFORD        COLIN      AB2225262                 1790757524SIERRA VISTA   AZ85650                    1961  285600  210540         D          1            00000060
1013438       159832809    000000012527794        20151231201512310059572041000REVLIMID 10MG CAP                                                   000002800002801689041                                                  025335523                                                           00000DEUTSCH        YEHUDA E.. FD5211583                 1447492913PEMBROKE PINES FL33028                    1944  233300  437350         D          1            00000028
1013438       159832809    000000012527919        20151231201512310059572050400POMALYST 4MG CAP                                                    000002100002801467198                                                  022008003                                                           00000HOLLISTER      DICKERMAN  AH1015571                 1063420669GREENWICH      CT06830                    1955  206900  449532         D          1            00000021
1013438       159832809    000000002520058        20151231201512310064406000602TECFIDERA 240MG CAP  30 DAY                                         000006000003000721680                                                  010825203                                                           12120CALKWOOD       JONATHAN   BC1674705                 1194765388GOLDEN VALLEY  MN55422                    1954  255100  393654         D          1            00000060
1013438       159832809    000000002517518        20151231201512310064406000602TECFIDERA 240MG CAP  30 DAY                                         000006000003000721680                                                  010825203                                                           03030SELIGER        ISLON      AS8952029                 1669425443HOLLYWOOD      FL33021                    1975  133000  420063         D          1            00000060
1013438       159832809    000000002511076        20151231201512310164406000602TECFIDERA 240MG CAP  30 DAY                                         000006000003000721680                                                  008870403                                                           11100SOMMERS        WILLIAM    AS2468432                 1740210830NEWARK         DE19713                    1956  219800  468499         D          1            00000060
1013438       159832809    000000002511129        20151231201512310164406000602TECFIDERA 240MG CAP  30 DAY                                         000006000003000721680                                                  010825203                                                           11100WEI            YONGZHONG  MW3153599                 1720227143PEORIA         IL61606                    1942  261500  390010         D          1            00000060
1013438       159832809    000000002493773        20151231201512310364406000602TECFIDERA 240MG CAP  30 DAY                                         000006000003000721680                                                  010825203                                                           11080MCDONALD       THOMAS D   BM2406646                 1710956289COLORADO SPRINGCO80907                    1961  280900  335498         D          1            00000060
1013438       159832809    000000002479309        20151231201601040564406000602TECFIDERA 240MG CAP  30 DAY                                         000006000003000721680                                                  010825203                                                           06010CROSS          ANNE       BC0582444                 1073531596SAINT LOUIS    MO63110                    1951  262800  393148         D          1            00000060
1013438       159832809    000000002438251        20151231201512311164406000602TECFIDERA 240MG CAP  30 DAY                                         000006000003000721680                                                  010825203                                                           11000KNUBLEY        WILLIAM    BK0390841                 1346269180FORT SMITH     AR72903                    1960  274900  421369         D          1            00000060
1013438       159832809    000000002433116        20151231201512311164406000602TECFIDERA 240MG CAP  30 DAY                                         000006000003000721680                                                  010825203                                                           11000LOTT           SHELLEY L  ML1061388                 1467674721KNOXVILLE      TN37920                    1962  237900  421538         D          1            00000060
1013438       159832809    000000002442195        20151231201512310564406000602TECFIDERA 240MG CAP  30 DAY                                         000006000003000721680                                                  010825203                                                           11060SETHI          RAJESH     AS2928844                 1982712634ALEXANDRIA     VA22304                    1975  122300  296316         D          1            00000060
1013438       159832809    000000002498696        20151231201512310500093747489CAPECITABINE 500MG TAB                                              000005600002100219065                                                  003286083                                                           05000HUSSEIN        ATIF (DNC) BH2936877                 1245225143HOLLYWOOD      FL33021                    1962  233000  444159         D          1            00000056
1013438       159832809    000000002435064        20151231201512311064406000602TECFIDERA 240MG CAP  30 DAY                                         000006000003000721680                                                  008870403                                                           10000BRUEN          DENISE     MB1133406                 1184758567CHARLOTTESVILLEVA22908                    1961  224000  393693         D          1            00000060
1013438       159832809    000000002504102        20151231201512310300069083038SUTENT 37.5MG CAPS                                                  000002800002801461661                                                  020881003                                                           05020GHAZAL         HASSAN     BG2540210                 1972682219HAZARD         KY41701                    1961  141700  391398         D          1            00000028
1013438       159832809    000000012527612        20151231201512310000597014560OFEV 150MG CAP                                                      000006000003000960000                                                  014400003                                                           00000GOUGH          MICHAEL S. FG1197929                 1477661486KENMORE        NY14217                    1928  214200  477895         D          1            00000060
1013438       159832809    000000012526353        20151231201512310000597014560OFEV 150MG CAP                                                      000006000003000960000                                                  014400003                                                           11110WOOD           RICHARD    AW1026043                 1487613089OKLAHOMA CITY  OK73106                    1942  179000  477091         D          1            00000060
1013438       159832809    000000002463358        20151231201512310950419052435BETASERON 0.3MG (14CT)                                              000001400002800677746                                                  010166243                                                           10010PAWAR          GAURI      BP6884705                 1497846323MORGANTOWN     WV26507                    1970  221500  351290         D          1            00000014
1013438       159832809    000000002489104        20151231201512310450419052435BETASERON 0.3MG (14CT)                                              000001400002800677746                                                  010166243                                                           11070ALEXAN-SHIRABADRICHARD    BA8793881                 1104859909BAKERSFIELD    CA93301                    1984  293300  456763         D          1            00000014
1013438       159832809    000000002442757        20151231201512311064406000602TECFIDERA 240MG CAP  30 DAY                                         000006000003000721680                                                  010825203                                                           11010LIPPA          CAROL F    BL1586671                 1083664965PHILADELPHIA   PA19107                    1986  119100  420645         D          1            00000060
1013438       159832809    000000002475228        20151231201512311547335027723TETRABENAZINE 12.5MG TAB                                            000002100001400165324                                                  002479893                                                           23080CIRANNI        MICHAEL AL FC0033009                 1760680722SAN RAFAEL     CA94901                    1936  194900  422089         D          1            00000021
1013438       159832809    000000002505792        20151231201512310250419052435BETASERON 0.3MG (14CT)                                              000001400002800677746                                                  010166243                                                           06040JERET          JOSEPH     BJ1944126                 1740235993ROCKVILLE CENTENY11570                    1944  211600  291137         D          1            00000014
1013438       159832809    000000002517210        20151231201512310100597014560OFEV 150MG CAP                                                      000006000003000960000                                                  014400003                                                           11100SILVERTHORN    AMY A.     AS2098817                 1659320802PHOENIX        AZ85012                    1937  185300  471956         D          1            00000060
1013438       159832809    000000002513337        20151231201512310250419052435BETASERON 0.3MG (14CT)                                              000001400002800677746                                                  010166243                                                           11090KRAFT          HOWARD     BK9189716                 1326097262WINSTON SALEM  NC27103                    1963  227000  312451         D          1            00000014
1013438       159832809    000000002498228        20151231201512310350419052435BETASERON 0.3MG (14CT)                                              000001400002800677746                                                  010166243                                                           11080WALKER         ALJOESON   BW3976430                 1912943234MOUNT PLEASANT SC29464                    1978  229100  423417         D          1            00000014
1013438       159832809    000000012527592        20151231201512310000597014360OFEV 100MG CAP                                                      000006000003000960000                                                  014400003                                                           03030SIMPSON        BOBBY J    AS3089946                 1972555852MILTON         FL32570                    1948  232500  468166         D          1            00000060
1013438       159832809    000000012527515        20151231201512310000078065515JADENU 180MG TAB                                                    000003000003000203976                                                  003059703                                                           03030VASIREDDY      RAVIKUMAR  BV4563575                 1043257413MUSKOGEE       OK74401                    1980  174400  297030         D          1            00000030
1013438       159832809    000000002520674        20151231201512310100597014360OFEV 100MG CAP                                                      000006000003000960000                                                  014400003                                                           05040SEE            CAROLINA Q BS8482705                 1831135201WENATCHEE      WA98801                    1946  298800  457805         D          1            00000060
1013438       159832809    000000012527681        20151231201512310059572042000REVLIMID 20MG CAP                                                   000002100002801266781                                                  019001643                                                           00000WHITTENBERGER  BROCK P    AW1007613                 1033293444WILLISTON      ND58801                    1946  159300  439303         D          1            00000021
1013438       159832809    000000012526407        20151231201512310000069018921IBRANCE 125MG CAP                                                   000002100002801241100                                                  017730093                                                           03030VASIREDDY      RAVIKUMAR  BV4563575                 1043257413MUSKOGEE       OK74401                    1937  274400  477260         D          1            00000021
1013438       159832809    000000002497678        20151231201512310443068022001HETLIOZ 20MG CAP                                                    000003000003001481986                                                  020208903                                                           06020LAMBERT        GARY W     AL8900121                 1619068715MUSKOGEE       OK74403                    1954  274400  415384         D          1            00000030
1013438       159832809    000000002438341        20151231201512311143068022001HETLIOZ 20MG CAP                                                    000003000003001481986                                                  020208903                                                           11000STEELMAN       LYDIA      FS3564514                 1679707475NORMAN         OK73069                    1962  273000  426370         D          1            00000030
1013438       159832809    000000012527549        20151231201512310059572040500REVLIMID 5MG CAP                                                    000002800002801689041                                                  025335523                                                           00000GOLDSZTAJN     HARRY (DNC FG4220454                 1487081196LOXAHATCHEE    FL33470                    1947  233400  434583         D          1            00000028
1013438       159832809    000000002431643        20151231201512311143068022001HETLIOZ 20MG CAP                                                    000003000003001481986                                                  020208903                                                           11000MADDACK        DON        BM2459952                 1013911031PORTAGE        IN46368                    1962  246300  416195         D          1            00000030
1013438       159832809    000000002439647        20151231201512311043068022001HETLIOZ 20MG CAP                                                    000003000003001481986                                                  020208903                                                           11010CAREY          SEAN       FC0158510                 1447328125LEWISTON       ME04240                    1966  204200  409289         D          1            00000030
1013438       159832809    000000012527863        20151231201512310059572040500REVLIMID 5MG CAP                                                    000002100002801266781                                                  019001643                                                           00000CASTRO         CESAR (ALE FC3690597                 1184824112DOVER          NH03820                    1934  203800  306576         D          1            00000021
1013438       159832809    000000002504784        20151231201512310200078064930GLEEVEC 400MG TAB                                                   000003000003001214692                                                  018220503                                                           05030CHAND          MRIDU      BS5746334                 1851377196ASHEVILLE      NC28801                    1952  228700  271664         D          1            00000030
1013438       159832809    000000012527312        20151231201512310059572041500REVLIMID 15MG CAP                                                   000002100002801266781                                                  019001643                                                           00000SGARLATA       CHERIE KAT MS0986870                 1376536326SYRACUSE       NY13215                    1936  213600  406556         D          1            00000021
1013438       159832809    000000002466368        20151231201512311147335027723TETRABENAZINE 12.5MG TAB                                            000004200001400330649                                                  004959783                                                           22110WOJCIESZEK     JOANNE M   BW3620259                 1699798686INDIANAPOLIS   IN46202                    1976  146000  446944         D          1            00000042
1013438       159832809    000000002521240        20151231201512310064406000602TECFIDERA 240MG CAP  30 DAY                                         000006000003000721680                                                  010825203                                                           01010BOWSER         THOMAS     BB0525014                 1467454371COLORADO SPRINGCO80910                    1961  280900  395017         D          1            00000060
1013438       159832809    000000012525702        20151231201512310064406000602TECFIDERA 240MG CAP  30 DAY                                         000006000003000721680                                                  010825203                                                           06060CAULI          MARIO      BC8187785                 1043273568JONESBORO      AR72401                    1950  272400  341237         D          1            00000060
1013438       159832809    000000012527627        20151231201512310000069018721IBRANCE 75MG CAP                                                    000002100002801241100                                                  017730093                                                           05050FORAN          JESSICA (D MF1855610                 1588820765STANFORD       CA94305                    1946  294300  465170         D          1            00000021
1013438       159832809    000000002515735        20151231201512310164406000602TECFIDERA 240MG CAP  30 DAY                                         000006000003000721680                                                  010825203                                                           11100KROESSLER      KATHLEEN   BK2068092                 1720005481ATTLEBORO      MA02703                    1956  202700  393564         D          1            00000060
1013438       159832809    000000012527421        20151231201512310050242006301TARCEVA 100MG TAB                                                   000003000003000768727                                                  011530803                                                           00000FAIG           DOUGLAS    AF8826527                 1053340521FT LAUDERDALE  FL33308                    1934  133000  469165         D          1            00000030
1013438       159832809    000000002505697        20151231201512310300054038325CYCLOPHOSPHAMIDE 50MG CAP                                           000003000003000046436                                                  000696603                                                           11080FINTEL         WILLIAM A  AF2902713                 1841268315SALEM          VA24153                    1970  224100  459136         D          1            00000030
1013438       159832809    000000002432957        20151231201512311164406000602TECFIDERA 240MG CAP  30 DAY                                         000006000003000721680                                                  010825203                                                           11000JANJUA         RIAZ       AJ8285276                 1508865908CUMBERLAND     MD21502                    1958  225400  202057         D          1            00000060
1013438       159832809    000000002507131        20151231201512310300093747489CAPECITABINE 500MG TAB                                              000005600002100219065                                                  003286083                                                           06030MIGAS          JOHN       BM4854736                 1629076971NORMAL         IL61761                    1948  161700  381226         D          1            00000056
1013438       159832809    000000002498717        20151231201512310367386042101XENAZINE 12.5MG TABLET                                              000006000003000598982                                                  008985003                                                           11080GALLAGHER      CATHERINE  BG5077385                 1891768545MADISON        WI53792                    1962  253500  383494         D          1            00000060
1013438       159832809    000000002448654        20151231201601040964406000602TECFIDERA 240MG CAP  30 DAY                                         000006000003000721680                                                  010825203                                                           11020TABET          MUNTHER    BT4926323                 1396708434HENDERSON      NC27536                    1960  223900  363148         D          1            00000060
1013438       159832809    000000002486871        20151231201512310500007464013PROMACTA 25MG TAB                                                   000002300003000295771                                                  004436473                                                           05000HSIANG         HARVEY (DN BH4229212                 1528001542FT WALTON BEACHFL32547                    1944  132500  430353         D          1            00000023
1013438       159832809    000000002486871        20151231201512310500007464013PROMACTA 25MG TAB                                                   000000700003000090017                                                  001350233                                                           05000HSIANG         HARVEY (DN BH4229212                 1528001542FT WALTON BEACHFL32547                    1944  132500  430353         D          1            00000007
1013438       159832809    000000002486870        20151231201512310500007464113PROMACTA 50MG TAB                                                   000003000003000717748                                                  010766103                                                           05000HSIANG         HARVEY (DN BH4229212                 1528001542FT WALTON BEACHFL32547                    1944  132500  430353         D          1            00000030
1013438       159832809    000000002483062        20151231201512310657894015012ZYTIGA 250MG TABLET                                                 000012000003000959558                                                  014392803                                                           06000GROW           WILLIAM    BG7738909                 1407804578ORLANDO        FL32804                    1943  132700  431349         D          1            00000120
1013438       159832809    000000012526328        20151231201512310059572050300POMALYST 3MG CAP                                                    000002100002801467198                                                  022008003                                                           00000GOODIN         DONALD E.  BG5054046                 1922102391GLASGOW        KY42141                    1936  142700  280968         D          1            00000021
1013438       159832809    000000012527761        20151231201512310064406000703TECFIDERA START PACK                                                000006000003000721680                                                  010825203                                                           00000JACOBY         ROBERT     BJ2122745                 1518961531BLAINE         MN55434                    1958  255300  419974         D          1            00000001
1013438       159832809    000000002519025        20151231201512310157894015012ZYTIGA 250MG TABLET                                                 000012000003000959558                                                  014392803                                                           06050BLECHER        CAROL  (DN MB0863630                 1932389368ELIZABETH      NJ07202                    1933  107000  459016         D          1            00000120
1013438       159832809    000000002496980        20151231201512310216729003515ANASTROZOLE 1MG TAB                                                 000003000003000039911                                                  000598803                                                           02000AYE            THAN T. (D FA5313654                 1104053792LAWTON         OK73505                    1933  273500  418943         D          1            00000030
1013438       159832809    000000002467680        20151231201512310616729003515ANASTROZOLE 1MG TAB                                                 000003000003000039911                                                  000598803                                                           06000SHAH           SONALI     FS4356134                 1225201387EXETER         NH03833                    1930  203800  287468         D          1            00000030
1013438       159832809    000000002498143        20151231201512310300078056751AFINITOR 10MG TAB (1X28)                                            000002800002801264500                                                  018967483                                                           06030DISTEFANO      ALFRED     AD7536658                 1104828664ARLINGTON      TX76012                    1954  276000  414593         D          1            00000028
1013438       159832809    000000012527372        20151231201512310000078056751AFINITOR 10MG TAB (1X28)                                            000002800002801264500                                                  018967483                                                           01010JASTI          SUSHAMA (D BJ9923726                 1780772277DENTON         TX76201                    1946  276200  391290         D          1            00000028
1013438       159832809    000000012527363        20151231201512310010631011731ABSORICA 30MG CAPSULE                                               000006000003000207560                                                  003113403                                                           00000BEDOCS         LALEH      FB0000151                 1952483828SANDUSKY       OH44870                    2000  143400  459240         D          1            00000060
1013438       159832809    000000012527497        20151231201512310059572041000REVLIMID 10MG CAP                                                   000002800002801689041                                                  025335523                                                           00000PEARSON        KATHY (DNC MP0997873                 1790781631HAMPTON        VA23666                    1943  223600  329092         D          1            00000028
1013438       159832809    000000002506029        20151231201512310264406000602TECFIDERA 240MG CAP  30 DAY                                         000006000003000721680                                                  010825203                                                           11090POWERS         J. MICHAEL BP0421684                 1578506259PHOENIX        AZ85006                    1953  285000  466324         D          1            00000060
1013438       159832809    000000002519079        20151231201512310100597014560OFEV 150MG CAP                                                      000006000003000960000                                                  014400003                                                           11100GIACOPPE JR.   GEORGE N   FG1627439                 1437168010MEDFORD        OR97504                    1949  197500  472881         D          1            00000060
1013438       159832809    000000002493230        20151231201512310561958180101HARVONI TAB                                                         000002800002803780000                                                  056700003                                                           05000KUGELMAS       MARCELO    BK4597134                 1992819130ENGLEWOOD      CO80113                    1956  180100  457891         D          1            00000028
1013438       159832809    000000012527057        20151231201512310059572041000REVLIMID 10MG CAP                                                   000002100002801266781                                                  019001643                                                           00000ZHANG          LI         FS2328222                 1972865863BRIGHTON       MA02135                    1932  102100  474524         D          1            00000021
1013438       159832809    000000012527311        20151231201512310059572042500REVLIMID 25MG CAP                                                   000002100002801266781                                                  019001643                                                           00000CURTI          JULIE      MM2016207                 1518190289NORWALK        CT06851                    1946  106400  321480         D          1            00000021
1013438       159832809    000000002484150        20151231201512310657894015012ZYTIGA 250MG TABLET                                                 000012000003000959558                                                  014392803                                                           06000CHASE          TRUDI A    BC2221846                 1225009137BRUNSWICK      ME04011                    1928  104800  455181         D          1            00000120
1013438       159832809    000000002484152        20151231201512310659746017210PREDNISONE 5MG TAB                                                  000006000003000003003                                                  000045003                                                           06000CHASE          TRUDI A    BC2221846                 1225009137BRUNSWICK      ME04011                    1928  104800  455181         D          1            00000060
1013438       159832809    000000002476529        20151231201512310557894015012ZYTIGA 250MG TABLET                                                 000012000003000959558                                                  014392803                                                           05000FINNIE         JOHN W (DN BF8766822                 1023088564SAINT LOUIS    MO63141                    1929  163600  403500         D          1            00000120
1013438       159832809    000000002494635        20151231201512310359746017210PREDNISONE 5MG TAB                                                  000006000003000003003                                                  000045003                                                           05020FINNIE         JOHN W (DN BF8766822                 1023088564SAINT LOUIS    MO63141                    1929  163600  403500         D          1            00000060
1013438       159832809    000000002499800        20151231201512310867386042201XENAZINE 25MG TABLET                                                000001400001400279525                                                  004192863                                                           37290CAVERO         FERNANDO   BC2257574                 1669545711SPRINGFIELD    MO65810                    1947  165800  392221         D          1            00000014
1013438       159832809    000000002502788        20151231201512310264406000602TECFIDERA 240MG CAP  30 DAY                                         000006000003000721680                                                  010825203                                                           11090HAMBURG        ANNE MARIE BS9362271                 1235157496VANCOUVER      WA98664                    1950  198600  389191         D          1            00000060
1013438       159832809    000000012527183        20151231201512310059572041000REVLIMID 10MG CAP                                                   000002100002801266781                                                  019001643                                                           00000BOWEN          L. MICHAEL AB8693081                 1851344048OKLAHOMA CITY  OK73102                    1929  174800  459408         D          1            00000021
1013438       159832809    000000012526873        20151231201512310059572040500REVLIMID 5MG CAP                                                    000002100002801266781                                                  019001643                                                           00000MINFORD        JON        BM1591545                 1003881145COLUMBIA       MD21044                    1945  220700  399539         D          1            00000021
1013438       159832809    000000012526815        20151231201512310059572041500REVLIMID 15MG CAP                                                   000002100002801266781                                                  019001643                                                           00000KOCOGLU        MEHMET HAK FK4917906                 1114001138BALTIMORE      MD21201                    1957  221200  313264         D          1            00000021
1013438       159832809    000000012526646        20151231201512310059572042500REVLIMID 25MG CAP                                                   000002100002801266781                                                  019001642                                                           00000KOULOVA        LIDIA B    BK9085906                 1467431999GOSHEN         NY10924                    1934  210900  426332         D          1            00000021
1013438       159832809    000000012525228        20151231201512310059572042500REVLIMID 25MG CAP                                                   000001400002100844521                                                  012667762                                                           00000JAFARI         MEHRDAD    BJ7465897                 1922076173MOUNT VERNON   WA98273                    1948  198200  441243         D          1            00000014
1013438       159832809    000000012525042        20151231201512310059572041000REVLIMID 10MG CAP                                                   000002100002801266781                                                  019001643                                                           00000GOLDSCHMIDT    JEROME (DN BG9357129                 1962478164WYTHEVILLE     VA24382                    1947  124000  269392         D          1            00000021
1013438       159832809    000000002524159        20151231201512310059572041000REVLIMID 10MG CAP                                                   000002100002801266781                                                  019001643                                                           00000SCHMIDT        ERIC       BS1154791                 1841353661DELTA          CO81416                    1950  181400  472299         D          1            00000021
1013438       159832809    000000012527354        20151231201512310059572041500REVLIMID 15MG CAP                                                   000002100002801266781                                                  019001643                                                           00000BHUSHAN        VIKAS (DNC BB5318034                 1285677138DALLAS         TX75230                    1957  175000  416498         D          1            00000021
1013438       159832809    000000012527617        20151231201512310000093078201TAMOXIFEN 20MG TAB                                                  000003000003000011377                                                  000170703                                                           11110CALDERA        HUMBERTO J BC8266810                 1891749164LAKE WORTH     FL33462                    1940  233400  477781         D          1            00000030
1013438       159832809    000000002520241        20151231201512310250242006301TARCEVA 100MG TAB                                                   000001000001400256242                                                  003843603                                                           07050KHANNA         RAVI C.    AK7482110                 1144221904SPRINGFIELD    OH45504                    1935  145500  472757         D          1            00000010
1013438       159832809    000000012527710        20151231201512310000093747489CAPECITABINE 500MG TAB                                              000012000002800469424                                                  007041603                                                           00000CHANG          RICHARD Y  BC8750639                 1285620468WESTLAKE       OH44145                    1948  144100  473005         D          1            00000120
1013438       159832809    000000012526148        20151231201512310000078059287TASIGNA  150MG CAPS (4X28)                                          000011200002801160426                                                  017406403                                                           02020OWERA          RAMI (DNC) BO6937861                 1225274772FOLEY          AL36535                    1967  236500  281769         D          1            00000112
1013438       159832809    000000012524916        20151231201512310059572041500REVLIMID 15MG CAP                                                   000002100002801266781                                                  019001643                                                           00000SKELTON        MATTHEW  R BS8022256                 1689614919ROANOKE        VA24014                    1934  224000  341578         D          1            00000021
1013438       159832809    000000002524663        20151231201512310059572041000REVLIMID 10MG CAP                                                   000002800002801689041                                                  025335522                                                           00000LOWREY         CHRISTOPHE BL1383378                 1154336964DARTMOUTH HITCHNH03756                    1968  105000  358543         D          1            00000028
1013438       159832809    000000012527665        20151231201512310049884050101BUDESONIDE 3MG CAP                                                  000009000003000169608                                                  002544303                                                           00000ARLINGHAUS     FRANK H    AA6647284                 1528056793SHREWSBURY     NJ07702                    1939  208500  445735         D          1            00000090
1013438       159832809    000000012527322        20151231201512310059572041000REVLIMID 10MG CAP                                                   000002100002801266781                                                  019001643                                                           00000ZANGARI        MAURIZIO ( BZ4507870                 1568476901LITTLE ROCK    AR72205                    1942  271600  423462         D          1            00000021
1013438       159832809    000000012527310        20151231201512310059572042500REVLIMID 25MG CAP                                                   000002100002801266781                                                  019001643                                                           00000BARTLETT       NANCY L    BB1330113                 1316965759SAINT LOUIS    MO63110                    1949  164800  474110         D          1            00000021
1013438       159832809    000000012527291        20151231201512310059572041000REVLIMID 10MG CAP                                                   000002800002801689041                                                  025335523                                                           00000KOENEKE        TRAVIS     BK8405056                 1942305677MANHATTAN      KS66502                    1949  166500  467574         D          1            00000028
1013438       159832809    000000012527271        20151231201512310059572041000REVLIMID 10MG CAP                                                   000002800002801689041                                                  025335523                                                           00000DESAI          NISARG     FD4649414                 1174768956ALTON          IL62002                    1936  162000  435237         D          1            00000028
1013438       159832809    000000012527209        20151231201512310059572041500REVLIMID 15MG CAP                                                   000002100002801266781                                                  019001643                                                           00000WEISS          RICHARD (D AW3281653                 1013019918ORMOND BEACH   FL32174                    1958  132100  439839         D          1            00000021
1013438       159832809    000000012527743        20151231201512310059572050200POMALYST 2MG CAP                                                    000002100002801467198                                                  022008003                                                           00000HIRSCH         ROBERT  A. BH7785542                 1093709669AVENTURA       FL33180                    1943  233100  211699         D          1            00000021
1013438       159832809    000000012527426        20151231201512310059572042500REVLIMID 25MG CAP                                                   000002100002801266781                                                  019001643                                                           00000GUTER          KARL (DNC/ AG7838278                 1437150331GREAT FALLS    MT59404                    1946  159400  417998         D          1            00000021
1013438       159832809    000000012527368        20151231201512310059572042000REVLIMID 20MG CAP                                                   000002100002801266781                                                  019001643                                                           00000GRABELSKY      STEPHEN (D AG3091232                 1366490781BOCA RATON     FL33486                    1943  233400  470932         D          1            00000021
1013438       159832809    000000012527359        20151231201512310059572041000REVLIMID 10MG CAP                                                   000002100002801266781                                                  019001643                                                           00000FARIA          ROHAN (DNC BF5458155                 1265435077TAMARAC        FL33321                    1948  133400  371961         D          1            00000021
1013438       159832809    000000012527169        20151231201501020059572041000REVLIMID 10MG CAP                                                   000002100002801266781                                                  019001643                                                           00000VEITH          ROBERT     AV8526797                 1750384921METAIRIE       LA70006                    1939  270100  360829         D          1            00000021
1013438       159832809    000000012527148        20151231201512310059572041500REVLIMID 15MG CAP                                                   000002100002801266781                                                  019001643                                                           00000SIDORSKI       AMY C      MS1755175                 1114191368BALTIMORE      MD21231                    1946  221000  418033         D          1            00000021
1013438       159832809    000000012527144        20151231201512310059572050300POMALYST 3MG CAP                                                    000002100002801467198                                                  022008003                                                           00000MOORE          MICHAEL R. AM9436672                 1790713170SHREVEPORT     LA71103                    1942  171000  368550         D          1            00000021
1013438       159832809    000000012527324        20151231201512310059572041500REVLIMID 15MG CAP                                                   000002100002801266781                                                  019001643                                                           00000REDDY          PAVAN      BR9442740                 1932161155EL DORADO      KS67214                    1947  167000  410557         D          1            00000021
1013438       159832809    000000012527344        20151231201512310059572041000REVLIMID 10MG CAP                                                   000002100002801266781                                                  019001643                                                           00000ROBIN          MANAL LOUI BR6176033                 1295714939LAWTON         OK73505                    1941  273500  422884         D          1            00000021
1013438       159832809    000000012527335        20151231201512310059572040500REVLIMID 5MG CAP                                                    000001200002800723875                                                  010858082                                                           00000RAUSCH         DANIEL     FR0460864                 1649478827LEWISTON       ME04240                    1954  204200  289041         D          1            00000012
1013438       159832809    000000012527777        20151231201512310059572041000REVLIMID 10MG CAP                                                   000002100002801266781                                                  019001643                                                           00000HOMSI          YASER (DNC FH1461615                 1790943983BRIDGEPORT     WV26330                    1946  126400  426777         D          1            00000021
1013438       159832809    000000012527745        20151231201512310059572041000REVLIMID 10MG CAP                                                   000002100002801266781                                                  019001643                                                           00000USMANI         SAAD       FU1919173                 1962601526LITTLE ROCK    AR72205                    1956  128600  438007         D          1            00000021
1013438       159832809    000000012527778        20151231201512310059572040500REVLIMID 5MG CAP                                                    000001100002800663552                                                  009953243                                                           00000ASHBY          JENNA      MR2340571                 1467757047HOOKSETT       NH03106                    1931  103300  414003         D          1            00000011
1013438       159832809    000000012525918        20151231201512310064406000602TECFIDERA 240MG CAP  30 DAY                                         000006000003000721680                                                  008870403                                                           01010JACOBS         DANIEL     BJ2071746                 1356323166ORLANDO        FL32806                    1950  232700  206590         D          1            00000060
1013438       159832809    000000012527629        20151231201512310059572041000REVLIMID 10MG CAP                                                   000002800002801689041                                                  021141683                                                           00000REDDY          SAMARTH L  BR8308505                 1851389514BOCA RATON     FL33428                    1942  233400  405986         D          1            00000028
1013438       159832809    000000002438888        20151231201512311064406000602TECFIDERA 240MG CAP  30 DAY                                         000006000003000721680                                                  010825203                                                           12020DAVIS          TRENT      AD9534404                 1972571750SALINA         KS67401                    1979  279700  317272         D          1            00000060
1013438       159832809    000000002435045        20151231201512311064406000602TECFIDERA 240MG CAP  30 DAY                                         000006000003000721680                                                  010825203                                                           11010SIMNAD         VIRGINIA   BS4306684                 1407925043KIRKLAND       WA98034                    1956  198000  388659         D          1            00000060
1013438       159832809    000000012526048        20151231201512310000597014560OFEV 150MG CAP                                                      000006000003000960000                                                  014400003                                                           11110EL- SIOUFI     SHERENE    FE3078715                 1205940657LEXINGTON      KY40503                    1952  240300  476027         D          1            00000060
1013438       159832809    000000002454948        20151231201512310900597014560OFEV 150MG CAP                                                      000006000003000960000                                                  014400003                                                           11020SOTO DE LA ROSAEDGARDO    FS1417422                 1801030408               FL33980                    1952  133900  442397         D          1            00000060
1013438       159832809    000000012527490        20151231201512310000069015111INLYTA 5MG                                                          000006000003001431736                                                  020453403                                                           11110CLARK          JOSEPH I   BC2908575                 1972580843MAYWOOD        IL60153                    1935  260400  448543         D          1            00000060
1013438       159832809    000000012525196        20151231201512310050419048858NEXAVAR 200MG TAB                                                   000012000003001727856                                                  023730003                                                           06060HILLE          MEGAN      MN1526992                 1124192372PHOENIX        AZ85006                    1945  285200  476528         D          1            00000120
1013438       159832809    000000002522653        20151231201512310000597014560OFEV 150MG CAP                                                      000006000003000960000                                                  014400003                                                           11110RAGHU          GANESH     BR1383126                 1821188780SEATTLE        WA98195                    1949  197300  430918         D          1            00000060
1013438       159832809    000000002491828        20151231201512310500597014560OFEV 150MG CAP                                                      000006000003000960000                                                  014400003                                                           06010SCHUETTE       MATTHEW    BS2920468                 1679526438METAIRIE       LA70006                    1954  270000  433997         D          1            00000060
1013438       159832809    000000012527837        20151231201512310059572041500REVLIMID 15MG CAP                                                   000002100002801266781                                                  019001643                                                           00000SIDORSKI       AMY C      MS1755175                 1114191368BALTIMORE      MD21231                    1940  210400  459999         D          1            00000021
1013438       159832809    000000002471820        20151231201512310700078060715GILENYA 0.5MG CAP                                                   000002800002800692282                                                  010384363                                                           12050DUKKIPATI      RAVI       BD6765816                 1710958434YORK           PA17402                    1965  117400  286050         D          1            00000028
1013438       159832809    000000012527751        20151231201512310059572041000REVLIMID 10MG CAP                                                   000002800002801689041                                                  025335523                                                           00000LESOHKIN       ALEXANDER  FL0702868                 1790950863NEW YORK       NY10021                    1941  111700  437963         D          1            00000028
1013438       159832809    000000002510836        20151231201512310447335017923TETRABENAZINE 25MG TAB                                              000008400001401322593                                                  011242053                                                           18140SHULMAN        LISA M.    BS3492434                 1700993540BALTIMORE      MD21201                    1976  121200  465385         D          1            00000084
1013438       159832809    000000012527744        20151231201512310059572050200POMALYST 2MG CAP                                                    000002100002801467198                                                  022008003                                                           00000BHUSHAN        VIKAS (DNC BB5318034                 1285677138DALLAS         TX75230                    1934  275200  459189         D          1            00000021
1013438       159832809    000000012527780        20151231201512310059572041000REVLIMID 10MG CAP                                                   000002800002801689041                                                  025335523                                                           00000ZAIDEN JR.     ROBERT A ( FZ1278527                 1821143710JACKSONVILLE   FL32207                    1950  132000  444781         D          1            00000028
1013438       159832809    000000002518820        20151231201512310100093747489CAPECITABINE 500MG TAB                                              000008400002100328597                                                  004929123                                                           05040CUSNIR         MIKE       BC8213782                 1962490631MIAMI BEACH    FL33140                    1942  133000  448981         D          1            00000084
1013438       159832809    000000012527839        20151231201512310059572042000REVLIMID 20MG CAP                                                   000002100002801266781                                                  019001643                                                           00000LIM            ALLEN      BL1827471                 1578526810MOREHEAD       KY40351                    1933  141100  435988         D          1            00000021
1013438       159832809    000000002432338        20151231201512310964406000602TECFIDERA 240MG CAP  30 DAY                                         000006000003000721680                                                  010825203                                                           11020HUNTER         RUTHANNA R FH3820366                 1821228404COLUMBIA       MO65212                    1948  265000  369717         D          1            00000060
1013438       159832809    000000002503276        20151231201512310300469012599XTANDI 40MG CAP                                                     000012000003001061758                                                  015926363                                                           05020LEWIS          BRIAN (DNC FL2509074                 1871773705NEW ORLEANS    LA70115                    1935  170400  447011         D          1            00000120
1013438       159832809    000000002524552        20151231201512310000597014560OFEV 150MG CAP                                                      000006000003000960000                                                  014400003                                                           03030GOLDEN         EMMEL      AG8941773                 1669478103MEMPHIS        TN38120                    1944  163800  446453         D          1            00000060
1013438       159832809    000000012527036        20151231201512310047335027723TETRABENAZINE 12.5MG TAB                                            000004200001400330649                                                  004959783                                                           06060MATTHIESSEN    PATRICK M. FM5039715                 1306833124MADISON        IN47250                    1942  247200  455014         D          1            00000042
1013438       159832809    000000002489324        20151231201512310464406000602TECFIDERA 240MG CAP  30 DAY                                         000006000003000721680                                                  010825203                                                           05010LEHMER         MELISSA    FL0333574                 1699922252PLEASANT HILL  CA94523                    1937  294500  343606         D          1            00000060
1013438       159832809    000000002444518        20151231201512311164406000602TECFIDERA 240MG CAP  30 DAY                                         000006000003000721680                                                  010825203                                                           11000ARCHER         ROBERT LEE AA1495387                 1699865170LITTLE ROCK    AR72205                    1945  272200  388222         D          1            00000060
1013438       159832809    000000002508277        20151231201512310200469012599XTANDI 40MG CAP                                                     000012000003001061758                                                  015926363                                                           05030RAJDEV         LAKSHMI N. BR5267112                 1053491548BRONX          NY10461                    1940  110700  415603         D          1            00000120
1013438       159832809    000000012527830        20151231201512310057894015012ZYTIGA 250MG TABLET                                                 000012000003000959558                                                  014392803                                                           03030CHANDRASEKARAN NAGARAJAN  AC8237934                 1821053695MARRERO        LA70072                    1935  170000  415175         D          1            00000120
1013438       159832809    000000002489340        20151231201512310500069083038SUTENT 37.5MG CAPS                                                  000001500003000783033                                                  011186253                                                           05000STANTON        THOMAS     BS1652266                 1699855445PETALUMA       CA94954                    1948  194900  403004         D          1            00000015
1013438       159832809    000000002488239        20151231201512310500069814020XALKORI 250MG CAP                                                   000005600002801583558                                                  022622323                                                           05000SINGH          JASWINDER  BS7860376                 1093747677LEXINGTON      MO64067                    1943  264000  425369         D          1            00000056
1013438       159832809    000000012526925        20151231201512310059572041500REVLIMID 15MG CAP                                                   000002100002801266781                                                  019001643                                                           00000STEARNS        DIANE      MS0225133                 1952414286LEBANON        NH03756                    1936  205000  363990         D          1            00000021
1013438       159832809    000000012527082        20151231201512310059572041500REVLIMID 15MG CAP                                                   000002100002801266781                                                  019001643                                                           00000FLAHERTY       TINA (EMAI MF0766711                 1437366101BOSTON         MA02215                    1941  202100  398127         D          1            00000021
1013438       159832809    000000002523193        20151231201512310064406000602TECFIDERA 240MG CAP  30 DAY                                         000006000003000721680                                                  010825203                                                           08080WYMER          JAMES      BW4376453                 1720037278NEW YORK       NY10019                    1955  212000  327099         D          1            00000060
1013438       159832809    000000002522906        20151231201512310000093747489CAPECITABINE 500MG TAB                                              000006000001400234712                                                  003520803                                                           00000SKELTON        MATTHEW  R BS8022256                 1689614919ROANOKE        VA24014                    1943  224900  475205         D          1            00000060
1013438       159832809    000000002499615        20151231201512310300093747489CAPECITABINE 500MG TAB                                              000008400002100328597                                                  004929123                                                           09060KHAN           MOHAMMAD A FK1251545                 1669525333JACKSONVILLE   FL32205                    1930  132000  419389         D          1            00000084
1013438       159832809    000000002481192        20151231201512310600078060715GILENYA 0.5MG CAP                                                   000003000003000741731                                                  011126103                                                           11050SIMMONS        JOHN PAUL  BS4201428                 1841285962ALAMOGORDO     NM88310                    1949  288300  401802         D          1            00000030
1013438       159832809    000000002494440        20151231201512310400173080409VOTRIENT  200MG TAB                                                 000006000003000526456                                                  007896603                                                           04000SILE           CYNTHIA (D BS6030869                 1568428043HERMITAGE      PA16148                    0000  223800  438165         D          1            00000060
1013438       159832809    000000002520251        20151231201512310164406000602TECFIDERA 240MG CAP  30 DAY                                         000006000003000721680                                                  010825203                                                           11100HEALEY         KATHLEEN   MH0346381                 1083662860OMAHA          NE68198                    1964  268100  348470         D          1            00000060
1013438       159832809    000000002520770        20151231201512310064406000602TECFIDERA 240MG CAP  30 DAY                                         000006000003000721680                                                  010825203                                                           11110APATOFF        BRIAN      BA2443341                 1528155611NEW YORK       NY10022                    1955  211300  389209         D          1            00000060
1013438       159832809    000000002450480        20151231201512310864406000602TECFIDERA 240MG CAP  30 DAY                                         000006000003000721680                                                  010825203                                                           11030BIXLER         CHRISTOPHE BB3766815                 1770575656RICE LAKE      WI54868                    1963  254800  435462         D          1            00000060
1013438       159832809    000000002496285        20151231201512310400069018821IBRANCE 100MG CAP                                                   000002100002801241100                                                  017730093                                                           05010GOODIN         DONALD     BG5054046                 1922102391GEORGETOWN     SC29440                    1936  242100  441663         D          1            00000021
1013438       159832809    000000002493162        20151231201512310400469012599XTANDI 40MG CAP                                                     000012000003001061758                                                  014200803                                                           05010HUSSAIN        ZULFIGAR   FH3828398                 1346444635MEADVILLE      PA16335                    1935  116300  457314         D          1            00000120
1013438       159832809    000000002488120        20151231201512310550242014001ERIVEDGE 150MG CAPSULE                                              000003000003001207370                                                  018110703                                                           11060MELO           JOSE B (DN AM2278768                 1922014547PLANTATION     FL33324                    1938  233300  456830         D          1            00000030
1013438       159832809    000000002523243        20151231201512310064406000602TECFIDERA 240MG CAP  30 DAY                                         000006000003000721680                                                  008870403                                                           11110FISCHER        ANASTASIA  BA6589723                 1235130782COVINGTON      LA70433                    1964  270400  270880         D          1            00000060
1013438       159832809    000000012526090        20151231201512310000597014560OFEV 150MG CAP                                                      000006000003000960000                                                  014400003                                                           11110AGRAWAL        RAJESH     BA3639474                 1295712602PINELLAS PARK  FL33781                    1938  233700  477176         D          1            00000060
1013438       159832809    000000002457111        20151231201512310800078059287TASIGNA  150MG CAPS (4X28)                                          000008400002800870320                                                  013054803                                                           11030CROSS          SCOTT J.   BC8270679                 1922003763NORFOLK        VA23502                    0000  223500  417410         D          1            00000084
1013438       159832809    000000002520323        20151231201512310000597014560OFEV 150MG CAP                                                      000006000003000960000                                                  014400003                                                           06060KOVACS         STEPHEN    BK9174640                 1467574186ERIE           PA16509                    1950  114700  449735         D          1            00000060
1013438       159832809    000000012525898        20151231201512310000007464013PROMACTA 25MG TAB                                                   000003000003000385789                                                  005786703                                                           00000KRUGLYAK       ELENA (DNC BK4573499                 1265420020BOCA RATON     FL33428                    1942  133400  477075         D          1            00000030
1013438       159832809    000000002502953        20151231201512310164406000602TECFIDERA 240MG CAP  30 DAY                                         000006000003000721680                                                  010825203                                                           11100WRIGHT         CRYSTAL M. MW3181245                 1568887529DALLAS         TX75390                    1944  276000  218404         D          1            00000060
1013438       159832809    000000002498374        20151231201512310300069018921IBRANCE 125MG CAP                                                   000002100002801241100                                                  017730093                                                           11080HUEFTLE        JAMES G.   BH0435948                 1528041571BUTTE          MT59701                    1949  259700  461099         D          1            00000021
1013438       159832809    000000002480141        20151231201512310500078060715GILENYA 0.5MG CAP                                                   000003000003000741731                                                  011126103                                                           11060CLEMENTS       TINA L     MC2311304                 1124018080SAN ANTONIO    TX78258                    1954  278200  211997         D          1            00000030
1013438       159832809    000000002520252        20151231201512310064406000602TECFIDERA 240MG CAP  30 DAY                                         000006000003000721680                                                  010825203                                                           11110PARKS          BECKY      BP3460653                 1356369813SAINT LOUIS    MO63110                    1962  263000  393768         D          1            00000060
1013438       159832809    000000002476217        20151231201512310650419052435BETASERON 0.3MG (14CT)                                              000001400002800677746                                                  010166243                                                           10040SYKES          STEVEN N   BS8880850                 1821144197LOS ANGELES    CA90048                    1976  290000  230393         D          1            00000014
1013438       159832809    000000002475396        20151231201512310550419052435BETASERON 0.3MG (14CT)                                              000001400002800677746                                                  010166243                                                           09040MRIDHA         DEBASISH   BM5036214                 1851327159SAGINAW        MI48604                    1966  248400  449516         D          1            00000014
1013438       159832809    000000002513716        20151231201512310250419052435BETASERON 0.3MG (14CT)                                              000001400002800677746                                                  010166243                                                           11090TONUZI         LIRIM      BT9401237                 1386660066HIGH POINT     NC27262                    1982  227400  425400         D          1            00000014
1013438       159832809    000000002510710        20151231201512310150419052435BETASERON 0.3MG (14CT)                                              000001400002800677746                                                  007757263                                                           10090MARTIN         TIMOTHY C. BM2307418                 1750355822LANCASTER      PA17601                    1956  217500  427078         D          1            00000014
1013438       159832809    000000002510141        20151231201512310250419052435BETASERON 0.3MG (14CT)                                              000001400002800677746                                                  010166243                                                           10080PORTER         JOHN A.    AP6662844                 1487636999ADVANCE        NC27006                    1971  227000  411013         D          1            00000014
1013438       159832809    000000002506563        20151231201512310250419052435BETASERON 0.3MG (14CT)                                              000001400002800677746                                                  010166243                                                           11090BORAZANCI      AIMEE      FB3955880                 1053522847PHOENIX        AZ85013                    1975  285100  458506         D          1            00000014
1013438       159832809    000000002520485        20151231201512310050419052435BETASERON 0.3MG (14CT)                                              000001400002800677746                                                  010166243                                                           11110HOWARTH        RICA       MH2007018                 1952530503MONACA         PA15066                    1979  115000  312025         D          1            00000014
1013438       159832809    000000002513762        20151231201512310150419052435BETASERON 0.3MG (14CT)                                              000001400002800677746                                                  010166243                                                           05040MAHMOOD        RANA       BM6061282                 1043363211DECATUR        IL62526                    1964  262500  283452         D          1            00000014
1013438       159832809    000000002490221        20151231201512310550419052435BETASERON 0.3MG (14CT)                                              000001400002800677746                                                  010166243                                                           11060VANDERKODDE    DANITA G   MV0909599                 1891996294GRAND RAPIDS   MI49525                    1969  149400  414161         D          1            00000014
1013438       159832809    000000002473527        20151231201512310550419052435BETASERON 0.3MG (14CT)                                              000001400002800677746                                                  010166243                                                           05000HORNSTEIN      WILLIAM    AH8143074                 1902858376LONG BEACH     CA90813                    1979  290800  338499         D          1            00000014
1013438       159832809    000000002492447        20151231201512310450419052435BETASERON 0.3MG (14CT)                                              000001400002800677746                                                  010166243                                                           11070CHILUKURI      VANI       BC5889196                 1346323599DURHAM         NC27710                    1963  224700  242566         D          1            00000014
1013438       159832809    000000002506193        20151231201512310250419052435BETASERON 0.3MG (14CT)                                              000001400002800677746                                                  010166243                                                           11090RASHEED        AAMIR      BR5036872                 1568547933JOHNSON CITY   NY13790                    1968  113700  347415         D          1            00000014
1013438       159832809    000000002498655        20151231201512310250419052435BETASERON 0.3MG (14CT)                                              000001400002800677746                                                  010166243                                                           06040HUNTER         HELI M     MH1148685                 1790812477GOLDEN VALLEY  MN55422                    1946  255300  302534         D          1            00000014
1013438       159832809    000000002503066        20151231201512310350419052435BETASERON 0.3MG (14CT)                                              000001400002800677746                                                  010166243                                                           11080BERKOVICH      REGINA     FB0052542                 1881743748LOS ANGELES    CA90033                    1953  290000  423523         D          1            00000014
1013438       159832809    000000002508824        20151231201512310250419052435BETASERON 0.3MG (14CT)                                              000001400002800677746                                                  010166243                                                           10080WOLF           JAMIE      MW3200108                 1366854069WAUKESHA       WI53188                    1958  153200  308900         D          1            00000014
1013438       159832809    000000002521092        20151231201512310050419052435BETASERON 0.3MG (14CT)                                              000001400002800677746                                                  010166243                                                           11110PIACENTE       GREGORY    AP7116660                 1063498723FORT WALTON BEAFL32547                    1954  232500  430485         D          1            00000014
1013438       159832809    000000002524194        20151231201512310000597014360OFEV 100MG CAP                                                      000006000003000960000                                                  014400003                                                           03030KELLEY         THOMAS     BK9924449                 1730293317BEND           OR97701                    1941  197700  475965         D          1            00000060
1013438       159832809    000000002522605        20151231201512310000469012599XTANDI 40MG CAP                                                     000012000003001061758                                                  015926363                                                           05050SCULO          DEBORAH    BS3513175                 1013910660AMSTERDAM      NY12010                    1937  112000  434922         D          1            00000120
1013438       159832809    000000002517276        20151231201512310164406000602TECFIDERA 240MG CAP  30 DAY                                         000006000003000721680                                                  010825203                                                           11100ROSE           JOHN W.    AR2438148                 1912947086SALT LAKE CITY UT84132                    1954  284100  419985         D          1            00000060
